:060000000A128A11FC2F18
:100F00000F30831603138600871507168312031309
:100F10008601080083120313861D8F2F902F932FB5
:100F200006148610952F061086140800F00070082D
:100F300083120313930083160313141CA02FA12FF5
:100F40009B2F080028308312031394008316031389
:100F50009101503093009401871507160800831201
:100F60000313061DB42FB52FBD2F061CB82FB92FA4
:100F7000BB2F0714C22F0710C22F861CC02FC12FF2
:100F8000C22F071008000A128A1180270A128A113C
:100F90000A128A11A2270A128A110A128A118A27B2
:100FA0000A128A110A128A11AF270A128A11003016
:100FB00083120313061801300A128A1196270A12A7
:100FC0008A11003083120313061901300A128A11A4
:100FD00096270A128A110330F3008A30F200553046
:100FE000F100F10BF12FF20BF12FF30BF12FF82F92
:100FF000CD2F0A128A11002883010A128A11C32FE9
:00000001FF
